{
	"contracts/funcionesxd.sol": {
		"Number": {
			"abi": [
				{
					"inputs": [],
					"name": "changeNumber",
					"outputs": [
						{
							"internalType": "int256",
							"name": "number",
							"type": "int256"
						}
					],
					"stateMutability": "nonpayable",
					"type": "function"
				},
				{
					"inputs": [],
					"name": "getNumber0",
					"outputs": [
						{
							"internalType": "int256",
							"name": "number",
							"type": "int256"
						}
					],
					"stateMutability": "nonpayable",
					"type": "function"
				}
			],
			"devdoc": {
				"kind": "dev",
				"methods": {},
				"version": 1
			},
			"evm": {
				"assembly": "    /* \"contracts/funcionesxd.sol\":74:399  contract Number {\r... */\n  mstore(0x40, 0x80)\n  callvalue\n  dup1\n  iszero\n  tag_1\n  jumpi\n  0x00\n  dup1\n  revert\ntag_1:\n  pop\n  dataSize(sub_0)\n  dup1\n  dataOffset(sub_0)\n  0x00\n  codecopy\n  0x00\n  return\nstop\n\nsub_0: assembly {\n        /* \"contracts/funcionesxd.sol\":74:399  contract Number {\r... */\n      mstore(0x40, 0x80)\n      callvalue\n      dup1\n      iszero\n      tag_1\n      jumpi\n      0x00\n      dup1\n      revert\n    tag_1:\n      pop\n      jumpi(tag_2, lt(calldatasize, 0x04))\n      shr(0xe0, calldataload(0x00))\n      dup1\n      0xba243c24\n      eq\n      tag_3\n      jumpi\n      dup1\n      0xc967aa5e\n      eq\n      tag_4\n      jumpi\n    tag_2:\n      0x00\n      dup1\n      revert\n        /* \"contracts/funcionesxd.sol\":97:186  function getNumber0() public returns (int256 number) {\r... */\n    tag_3:\n      tag_5\n      tag_6\n      jump\t// in\n    tag_5:\n      mload(0x40)\n      tag_7\n      swap2\n      swap1\n      tag_8\n      jump\t// in\n    tag_7:\n      mload(0x40)\n      dup1\n      swap2\n      sub\n      swap1\n      return\n        /* \"contracts/funcionesxd.sol\":296:396  function changeNumber() public returns (int256 number) {\r... */\n    tag_4:\n      tag_9\n      tag_10\n      jump\t// in\n    tag_9:\n      mload(0x40)\n      tag_11\n      swap2\n      swap1\n      tag_8\n      jump\t// in\n    tag_11:\n      mload(0x40)\n      dup1\n      swap2\n      sub\n      swap1\n      return\n        /* \"contracts/funcionesxd.sol\":97:186  function getNumber0() public returns (int256 number) {\r... */\n    tag_6:\n        /* \"contracts/funcionesxd.sol\":135:148  int256 number */\n      0x00\n        /* \"contracts/funcionesxd.sol\":170:174  1948 */\n      0x079c\n        /* \"contracts/funcionesxd.sol\":161:174  number = 1948 */\n      swap1\n      pop\n        /* \"contracts/funcionesxd.sol\":97:186  function getNumber0() public returns (int256 number) {\r... */\n      swap1\n      jump\t// out\n        /* \"contracts/funcionesxd.sol\":296:396  function changeNumber() public returns (int256 number) {\r... */\n    tag_10:\n        /* \"contracts/funcionesxd.sol\":336:349  int256 number */\n      0x00\n        /* \"contracts/funcionesxd.sol\":386:388  -1 */\n      0xffffffffffffffffffffffffffffffffffffffffffffffffffffffffffffffff\n        /* \"contracts/funcionesxd.sol\":371:383  getNumber1() */\n      tag_14\n        /* \"contracts/funcionesxd.sol\":371:381  getNumber1 */\n      tag_15\n        /* \"contracts/funcionesxd.sol\":371:383  getNumber1() */\n      jump\t// in\n    tag_14:\n        /* \"contracts/funcionesxd.sol\":371:388  getNumber1() * -1 */\n      tag_16\n      swap2\n      swap1\n      tag_17\n      jump\t// in\n    tag_16:\n        /* \"contracts/funcionesxd.sol\":362:388  number = getNumber1() * -1 */\n      swap1\n      pop\n        /* \"contracts/funcionesxd.sol\":296:396  function changeNumber() public returns (int256 number) {\r... */\n      swap1\n      jump\t// out\n        /* \"contracts/funcionesxd.sol\":198:288  function getNumber1() private returns (int256 number) {\r... */\n    tag_15:\n        /* \"contracts/funcionesxd.sol\":237:250  int256 number */\n      0x00\n        /* \"contracts/funcionesxd.sol\":272:276  1945 */\n      0x0799\n        /* \"contracts/funcionesxd.sol\":263:276  number = 1945 */\n      swap1\n      pop\n        /* \"contracts/funcionesxd.sol\":198:288  function getNumber1() private returns (int256 number) {\r... */\n      swap1\n      jump\t// out\n        /* \"#utility.yul\":7:122   */\n    tag_20:\n        /* \"#utility.yul\":92:115   */\n      tag_22\n        /* \"#utility.yul\":109:114   */\n      dup2\n        /* \"#utility.yul\":92:115   */\n      tag_23\n      jump\t// in\n    tag_22:\n        /* \"#utility.yul\":87:90   */\n      dup3\n        /* \"#utility.yul\":80:116   */\n      mstore\n        /* \"#utility.yul\":7:122   */\n      pop\n      pop\n      jump\t// out\n        /* \"#utility.yul\":128:346   */\n    tag_8:\n        /* \"#utility.yul\":219:223   */\n      0x00\n        /* \"#utility.yul\":257:259   */\n      0x20\n        /* \"#utility.yul\":246:255   */\n      dup3\n        /* \"#utility.yul\":242:260   */\n      add\n        /* \"#utility.yul\":234:260   */\n      swap1\n      pop\n        /* \"#utility.yul\":270:339   */\n      tag_25\n        /* \"#utility.yul\":336:337   */\n      0x00\n        /* \"#utility.yul\":325:334   */\n      dup4\n        /* \"#utility.yul\":321:338   */\n      add\n        /* \"#utility.yul\":312:318   */\n      dup5\n        /* \"#utility.yul\":270:339   */\n      tag_20\n      jump\t// in\n    tag_25:\n        /* \"#utility.yul\":128:346   */\n      swap3\n      swap2\n      pop\n      pop\n      jump\t// out\n        /* \"#utility.yul\":352:1343   */\n    tag_17:\n        /* \"#utility.yul\":391:398   */\n      0x00\n        /* \"#utility.yul\":414:433   */\n      tag_27\n        /* \"#utility.yul\":431:432   */\n      dup3\n        /* \"#utility.yul\":414:433   */\n      tag_23\n      jump\t// in\n    tag_27:\n        /* \"#utility.yul\":409:433   */\n      swap2\n      pop\n        /* \"#utility.yul\":447:466   */\n      tag_28\n        /* \"#utility.yul\":464:465   */\n      dup4\n        /* \"#utility.yul\":447:466   */\n      tag_23\n      jump\t// in\n    tag_28:\n        /* \"#utility.yul\":442:466   */\n      swap3\n      pop\n        /* \"#utility.yul\":648:649   */\n      dup3\n        /* \"#utility.yul\":580:646   */\n      0x7fffffffffffffffffffffffffffffffffffffffffffffffffffffffffffffff\n        /* \"#utility.yul\":576:650   */\n      div\n        /* \"#utility.yul\":573:574   */\n      dup3\n        /* \"#utility.yul\":570:651   */\n      gt\n        /* \"#utility.yul\":565:566   */\n      0x00\n        /* \"#utility.yul\":562:563   */\n      dup5\n        /* \"#utility.yul\":558:567   */\n      sgt\n        /* \"#utility.yul\":554:555   */\n      0x00\n        /* \"#utility.yul\":551:552   */\n      dup5\n        /* \"#utility.yul\":547:556   */\n      sgt\n        /* \"#utility.yul\":543:568   */\n      and\n        /* \"#utility.yul\":539:652   */\n      and\n        /* \"#utility.yul\":536:675   */\n      iszero\n      tag_29\n      jumpi\n        /* \"#utility.yul\":655:673   */\n      tag_30\n      tag_31\n      jump\t// in\n    tag_30:\n        /* \"#utility.yul\":536:675   */\n    tag_29:\n        /* \"#utility.yul\":859:860   */\n      dup2\n        /* \"#utility.yul\":791:857   */\n      0x8000000000000000000000000000000000000000000000000000000000000000\n        /* \"#utility.yul\":786:861   */\n      sdiv\n        /* \"#utility.yul\":783:784   */\n      dup4\n        /* \"#utility.yul\":779:862   */\n      slt\n        /* \"#utility.yul\":774:775   */\n      0x00\n        /* \"#utility.yul\":771:772   */\n      dup5\n        /* \"#utility.yul\":767:776   */\n      slt\n        /* \"#utility.yul\":763:764   */\n      0x00\n        /* \"#utility.yul\":760:761   */\n      dup5\n        /* \"#utility.yul\":756:765   */\n      sgt\n        /* \"#utility.yul\":752:777   */\n      and\n        /* \"#utility.yul\":748:863   */\n      and\n        /* \"#utility.yul\":745:886   */\n      iszero\n      tag_32\n      jumpi\n        /* \"#utility.yul\":866:884   */\n      tag_33\n      tag_31\n      jump\t// in\n    tag_33:\n        /* \"#utility.yul\":745:886   */\n    tag_32:\n        /* \"#utility.yul\":1070:1071   */\n      dup3\n        /* \"#utility.yul\":1002:1068   */\n      0x8000000000000000000000000000000000000000000000000000000000000000\n        /* \"#utility.yul\":997:1072   */\n      sdiv\n        /* \"#utility.yul\":994:995   */\n      dup3\n        /* \"#utility.yul\":990:1073   */\n      slt\n        /* \"#utility.yul\":985:986   */\n      0x00\n        /* \"#utility.yul\":982:983   */\n      dup5\n        /* \"#utility.yul\":978:987   */\n      sgt\n        /* \"#utility.yul\":974:975   */\n      0x00\n        /* \"#utility.yul\":971:972   */\n      dup5\n        /* \"#utility.yul\":967:976   */\n      slt\n        /* \"#utility.yul\":963:988   */\n      and\n        /* \"#utility.yul\":959:1074   */\n      and\n        /* \"#utility.yul\":956:1097   */\n      iszero\n      tag_34\n      jumpi\n        /* \"#utility.yul\":1077:1095   */\n      tag_35\n      tag_31\n      jump\t// in\n    tag_35:\n        /* \"#utility.yul\":956:1097   */\n    tag_34:\n        /* \"#utility.yul\":1280:1281   */\n      dup3\n        /* \"#utility.yul\":1212:1278   */\n      0x7fffffffffffffffffffffffffffffffffffffffffffffffffffffffffffffff\n        /* \"#utility.yul\":1207:1282   */\n      sdiv\n        /* \"#utility.yul\":1204:1205   */\n      dup3\n        /* \"#utility.yul\":1200:1283   */\n      slt\n        /* \"#utility.yul\":1195:1196   */\n      0x00\n        /* \"#utility.yul\":1192:1193   */\n      dup5\n        /* \"#utility.yul\":1188:1197   */\n      slt\n        /* \"#utility.yul\":1184:1185   */\n      0x00\n        /* \"#utility.yul\":1181:1182   */\n      dup5\n        /* \"#utility.yul\":1177:1186   */\n      slt\n        /* \"#utility.yul\":1173:1198   */\n      and\n        /* \"#utility.yul\":1169:1284   */\n      and\n        /* \"#utility.yul\":1166:1307   */\n      iszero\n      tag_36\n      jumpi\n        /* \"#utility.yul\":1287:1305   */\n      tag_37\n      tag_31\n      jump\t// in\n    tag_37:\n        /* \"#utility.yul\":1166:1307   */\n    tag_36:\n        /* \"#utility.yul\":1335:1336   */\n      dup3\n        /* \"#utility.yul\":1332:1333   */\n      dup3\n        /* \"#utility.yul\":1328:1337   */\n      mul\n        /* \"#utility.yul\":1317:1337   */\n      swap1\n      pop\n        /* \"#utility.yul\":352:1343   */\n      swap3\n      swap2\n      pop\n      pop\n      jump\t// out\n        /* \"#utility.yul\":1349:1425   */\n    tag_23:\n        /* \"#utility.yul\":1385:1392   */\n      0x00\n        /* \"#utility.yul\":1414:1419   */\n      dup2\n        /* \"#utility.yul\":1403:1419   */\n      swap1\n      pop\n        /* \"#utility.yul\":1349:1425   */\n      swap2\n      swap1\n      pop\n      jump\t// out\n        /* \"#utility.yul\":1431:1611   */\n    tag_31:\n        /* \"#utility.yul\":1479:1556   */\n      0x4e487b7100000000000000000000000000000000000000000000000000000000\n        /* \"#utility.yul\":1476:1477   */\n      0x00\n        /* \"#utility.yul\":1469:1557   */\n      mstore\n        /* \"#utility.yul\":1576:1580   */\n      0x11\n        /* \"#utility.yul\":1573:1574   */\n      0x04\n        /* \"#utility.yul\":1566:1581   */\n      mstore\n        /* \"#utility.yul\":1600:1604   */\n      0x24\n        /* \"#utility.yul\":1597:1598   */\n      0x00\n        /* \"#utility.yul\":1590:1605   */\n      revert\n\n    auxdata: 0xa2646970667358221220eec041a387bf0e9254d5394a203110f4ee9287f6dde9be8824e5a0895338695064736f6c63430008070033\n}\n",
				"bytecode": {
					"linkReferences": {},
					"object": "608060405234801561001057600080fd5b50610275806100206000396000f3fe608060405234801561001057600080fd5b50600436106100365760003560e01c8063ba243c241461003b578063c967aa5e14610059575b600080fd5b610043610077565b60405161005091906100d4565b60405180910390f35b610061610081565b60405161006e91906100d4565b60405180910390f35b600061079c905090565b60007fffffffffffffffffffffffffffffffffffffffffffffffffffffffffffffffff6100ac6100bb565b6100b691906100ef565b905090565b6000610799905090565b6100ce81610206565b82525050565b60006020820190506100e960008301846100c5565b92915050565b60006100fa82610206565b915061010583610206565b9250827f7fffffffffffffffffffffffffffffffffffffffffffffffffffffffffffffff048211600084136000841316161561014457610143610210565b5b817f8000000000000000000000000000000000000000000000000000000000000000058312600084126000841316161561018157610180610210565b5b827f800000000000000000000000000000000000000000000000000000000000000005821260008413600084121616156101be576101bd610210565b5b827f7fffffffffffffffffffffffffffffffffffffffffffffffffffffffffffffff05821260008412600084121616156101fb576101fa610210565b5b828202905092915050565b6000819050919050565b7f4e487b7100000000000000000000000000000000000000000000000000000000600052601160045260246000fdfea2646970667358221220eec041a387bf0e9254d5394a203110f4ee9287f6dde9be8824e5a0895338695064736f6c63430008070033",
					"opcodes": "PUSH1 0x80 PUSH1 0x40 MSTORE CALLVALUE DUP1 ISZERO PUSH2 0x10 JUMPI PUSH1 0x0 DUP1 REVERT JUMPDEST POP PUSH2 0x275 DUP1 PUSH2 0x20 PUSH1 0x0 CODECOPY PUSH1 0x0 RETURN INVALID PUSH1 0x80 PUSH1 0x40 MSTORE CALLVALUE DUP1 ISZERO PUSH2 0x10 JUMPI PUSH1 0x0 DUP1 REVERT JUMPDEST POP PUSH1 0x4 CALLDATASIZE LT PUSH2 0x36 JUMPI PUSH1 0x0 CALLDATALOAD PUSH1 0xE0 SHR DUP1 PUSH4 0xBA243C24 EQ PUSH2 0x3B JUMPI DUP1 PUSH4 0xC967AA5E EQ PUSH2 0x59 JUMPI JUMPDEST PUSH1 0x0 DUP1 REVERT JUMPDEST PUSH2 0x43 PUSH2 0x77 JUMP JUMPDEST PUSH1 0x40 MLOAD PUSH2 0x50 SWAP2 SWAP1 PUSH2 0xD4 JUMP JUMPDEST PUSH1 0x40 MLOAD DUP1 SWAP2 SUB SWAP1 RETURN JUMPDEST PUSH2 0x61 PUSH2 0x81 JUMP JUMPDEST PUSH1 0x40 MLOAD PUSH2 0x6E SWAP2 SWAP1 PUSH2 0xD4 JUMP JUMPDEST PUSH1 0x40 MLOAD DUP1 SWAP2 SUB SWAP1 RETURN JUMPDEST PUSH1 0x0 PUSH2 0x79C SWAP1 POP SWAP1 JUMP JUMPDEST PUSH1 0x0 PUSH32 0xFFFFFFFFFFFFFFFFFFFFFFFFFFFFFFFFFFFFFFFFFFFFFFFFFFFFFFFFFFFFFFFF PUSH2 0xAC PUSH2 0xBB JUMP JUMPDEST PUSH2 0xB6 SWAP2 SWAP1 PUSH2 0xEF JUMP JUMPDEST SWAP1 POP SWAP1 JUMP JUMPDEST PUSH1 0x0 PUSH2 0x799 SWAP1 POP SWAP1 JUMP JUMPDEST PUSH2 0xCE DUP2 PUSH2 0x206 JUMP JUMPDEST DUP3 MSTORE POP POP JUMP JUMPDEST PUSH1 0x0 PUSH1 0x20 DUP3 ADD SWAP1 POP PUSH2 0xE9 PUSH1 0x0 DUP4 ADD DUP5 PUSH2 0xC5 JUMP JUMPDEST SWAP3 SWAP2 POP POP JUMP JUMPDEST PUSH1 0x0 PUSH2 0xFA DUP3 PUSH2 0x206 JUMP JUMPDEST SWAP2 POP PUSH2 0x105 DUP4 PUSH2 0x206 JUMP JUMPDEST SWAP3 POP DUP3 PUSH32 0x7FFFFFFFFFFFFFFFFFFFFFFFFFFFFFFFFFFFFFFFFFFFFFFFFFFFFFFFFFFFFFFF DIV DUP3 GT PUSH1 0x0 DUP5 SGT PUSH1 0x0 DUP5 SGT AND AND ISZERO PUSH2 0x144 JUMPI PUSH2 0x143 PUSH2 0x210 JUMP JUMPDEST JUMPDEST DUP2 PUSH32 0x8000000000000000000000000000000000000000000000000000000000000000 SDIV DUP4 SLT PUSH1 0x0 DUP5 SLT PUSH1 0x0 DUP5 SGT AND AND ISZERO PUSH2 0x181 JUMPI PUSH2 0x180 PUSH2 0x210 JUMP JUMPDEST JUMPDEST DUP3 PUSH32 0x8000000000000000000000000000000000000000000000000000000000000000 SDIV DUP3 SLT PUSH1 0x0 DUP5 SGT PUSH1 0x0 DUP5 SLT AND AND ISZERO PUSH2 0x1BE JUMPI PUSH2 0x1BD PUSH2 0x210 JUMP JUMPDEST JUMPDEST DUP3 PUSH32 0x7FFFFFFFFFFFFFFFFFFFFFFFFFFFFFFFFFFFFFFFFFFFFFFFFFFFFFFFFFFFFFFF SDIV DUP3 SLT PUSH1 0x0 DUP5 SLT PUSH1 0x0 DUP5 SLT AND AND ISZERO PUSH2 0x1FB JUMPI PUSH2 0x1FA PUSH2 0x210 JUMP JUMPDEST JUMPDEST DUP3 DUP3 MUL SWAP1 POP SWAP3 SWAP2 POP POP JUMP JUMPDEST PUSH1 0x0 DUP2 SWAP1 POP SWAP2 SWAP1 POP JUMP JUMPDEST PUSH32 0x4E487B7100000000000000000000000000000000000000000000000000000000 PUSH1 0x0 MSTORE PUSH1 0x11 PUSH1 0x4 MSTORE PUSH1 0x24 PUSH1 0x0 REVERT INVALID LOG2 PUSH5 0x6970667358 0x22 SLT KECCAK256 0xEE 0xC0 COINBASE LOG3 DUP8 0xBF 0xE SWAP3 SLOAD 0xD5 CODECOPY 0x4A KECCAK256 BALANCE LT DELEGATECALL 0xEE SWAP3 DUP8 0xF6 0xDD 0xE9 0xBE DUP9 0x24 0xE5 LOG0 DUP10 MSTORE8 CODESIZE PUSH10 0x5064736F6C6343000807 STOP CALLER "
				},
				"gasEstimates": {
					"creation": {
						"codeDepositCost": "125800",
						"executionCost": "171",
						"totalCost": "125971"
					},
					"external": {
						"changeNumber()": "infinite",
						"getNumber0()": "315"
					},
					"internal": {
						"getNumber1()": "23"
					}
				},
				"methodIdentifiers": {
					"changeNumber()": "c967aa5e",
					"getNumber0()": "ba243c24"
				}
			},
			"storageLayout": {
				"storage": [],
				"types": null
			},
			"userdoc": {
				"kind": "user",
				"methods": {},
				"version": 1
			}
		}
	}
}