{
	"contracts/funcionesxd.sol": {
		"Number": {
			"abi": [
				{
					"inputs": [],
					"name": "changeNumber",
					"outputs": [
						{
							"internalType": "int256",
							"name": "number",
							"type": "int256"
						}
					],
					"stateMutability": "nonpayable",
					"type": "function"
				},
				{
					"inputs": [],
					"name": "getNumber",
					"outputs": [
						{
							"internalType": "int256",
							"name": "number",
							"type": "int256"
						}
					],
					"stateMutability": "nonpayable",
					"type": "function"
				}
			],
			"devdoc": {
				"kind": "dev",
				"methods": {},
				"version": 1
			},
			"evm": {
				"assembly": "    /* \"contracts/funcionesxd.sol\":74:287  contract Number {\r... */\n  mstore(0x40, 0x80)\n  callvalue\n  dup1\n  iszero\n  tag_1\n  jumpi\n  0x00\n  dup1\n  revert\ntag_1:\n  pop\n  dataSize(sub_0)\n  dup1\n  dataOffset(sub_0)\n  0x00\n  codecopy\n  0x00\n  return\nstop\n\nsub_0: assembly {\n        /* \"contracts/funcionesxd.sol\":74:287  contract Number {\r... */\n      mstore(0x40, 0x80)\n      callvalue\n      dup1\n      iszero\n      tag_1\n      jumpi\n      0x00\n      dup1\n      revert\n    tag_1:\n      pop\n      jumpi(tag_2, lt(calldatasize, 0x04))\n      shr(0xe0, calldataload(0x00))\n      dup1\n      0xc967aa5e\n      eq\n      tag_3\n      jumpi\n      dup1\n      0xf2c9ecd8\n      eq\n      tag_4\n      jumpi\n    tag_2:\n      0x00\n      dup1\n      revert\n        /* \"contracts/funcionesxd.sol\":188:282  function changeNumber() public returns (int number) {\r... */\n    tag_3:\n      tag_5\n      tag_6\n      jump\t// in\n    tag_5:\n      mload(0x40)\n      tag_7\n      swap2\n      swap1\n      tag_8\n      jump\t// in\n    tag_7:\n      mload(0x40)\n      dup1\n      swap2\n      sub\n      swap1\n      return\n        /* \"contracts/funcionesxd.sol\":99:180  function getNumber() public returns (int number) {\r... */\n    tag_4:\n      tag_9\n      tag_10\n      jump\t// in\n    tag_9:\n      mload(0x40)\n      tag_11\n      swap2\n      swap1\n      tag_8\n      jump\t// in\n    tag_11:\n      mload(0x40)\n      dup1\n      swap2\n      sub\n      swap1\n      return\n        /* \"contracts/funcionesxd.sol\":188:282  function changeNumber() public returns (int number) {\r... */\n    tag_6:\n        /* \"contracts/funcionesxd.sol\":228:238  int number */\n      0x00\n        /* \"contracts/funcionesxd.sol\":272:274  -1 */\n      0xffffffffffffffffffffffffffffffffffffffffffffffffffffffffffffffff\n        /* \"contracts/funcionesxd.sol\":260:271  getNumber() */\n      tag_13\n        /* \"contracts/funcionesxd.sol\":260:269  getNumber */\n      tag_10\n        /* \"contracts/funcionesxd.sol\":260:271  getNumber() */\n      jump\t// in\n    tag_13:\n        /* \"contracts/funcionesxd.sol\":260:274  getNumber()*-1 */\n      tag_14\n      swap2\n      swap1\n      tag_15\n      jump\t// in\n    tag_14:\n        /* \"contracts/funcionesxd.sol\":251:274  number = getNumber()*-1 */\n      swap1\n      pop\n        /* \"contracts/funcionesxd.sol\":188:282  function changeNumber() public returns (int number) {\r... */\n      swap1\n      jump\t// out\n        /* \"contracts/funcionesxd.sol\":99:180  function getNumber() public returns (int number) {\r... */\n    tag_10:\n        /* \"contracts/funcionesxd.sol\":136:146  int number */\n      0x00\n        /* \"contracts/funcionesxd.sol\":168:172  1945 */\n      0x0799\n        /* \"contracts/funcionesxd.sol\":159:172  number = 1945 */\n      swap1\n      pop\n        /* \"contracts/funcionesxd.sol\":99:180  function getNumber() public returns (int number) {\r... */\n      swap1\n      jump\t// out\n        /* \"#utility.yul\":7:122   */\n    tag_18:\n        /* \"#utility.yul\":92:115   */\n      tag_20\n        /* \"#utility.yul\":109:114   */\n      dup2\n        /* \"#utility.yul\":92:115   */\n      tag_21\n      jump\t// in\n    tag_20:\n        /* \"#utility.yul\":87:90   */\n      dup3\n        /* \"#utility.yul\":80:116   */\n      mstore\n        /* \"#utility.yul\":7:122   */\n      pop\n      pop\n      jump\t// out\n        /* \"#utility.yul\":128:346   */\n    tag_8:\n        /* \"#utility.yul\":219:223   */\n      0x00\n        /* \"#utility.yul\":257:259   */\n      0x20\n        /* \"#utility.yul\":246:255   */\n      dup3\n        /* \"#utility.yul\":242:260   */\n      add\n        /* \"#utility.yul\":234:260   */\n      swap1\n      pop\n        /* \"#utility.yul\":270:339   */\n      tag_23\n        /* \"#utility.yul\":336:337   */\n      0x00\n        /* \"#utility.yul\":325:334   */\n      dup4\n        /* \"#utility.yul\":321:338   */\n      add\n        /* \"#utility.yul\":312:318   */\n      dup5\n        /* \"#utility.yul\":270:339   */\n      tag_18\n      jump\t// in\n    tag_23:\n        /* \"#utility.yul\":128:346   */\n      swap3\n      swap2\n      pop\n      pop\n      jump\t// out\n        /* \"#utility.yul\":352:1343   */\n    tag_15:\n        /* \"#utility.yul\":391:398   */\n      0x00\n        /* \"#utility.yul\":414:433   */\n      tag_25\n        /* \"#utility.yul\":431:432   */\n      dup3\n        /* \"#utility.yul\":414:433   */\n      tag_21\n      jump\t// in\n    tag_25:\n        /* \"#utility.yul\":409:433   */\n      swap2\n      pop\n        /* \"#utility.yul\":447:466   */\n      tag_26\n        /* \"#utility.yul\":464:465   */\n      dup4\n        /* \"#utility.yul\":447:466   */\n      tag_21\n      jump\t// in\n    tag_26:\n        /* \"#utility.yul\":442:466   */\n      swap3\n      pop\n        /* \"#utility.yul\":648:649   */\n      dup3\n        /* \"#utility.yul\":580:646   */\n      0x7fffffffffffffffffffffffffffffffffffffffffffffffffffffffffffffff\n        /* \"#utility.yul\":576:650   */\n      div\n        /* \"#utility.yul\":573:574   */\n      dup3\n        /* \"#utility.yul\":570:651   */\n      gt\n        /* \"#utility.yul\":565:566   */\n      0x00\n        /* \"#utility.yul\":562:563   */\n      dup5\n        /* \"#utility.yul\":558:567   */\n      sgt\n        /* \"#utility.yul\":554:555   */\n      0x00\n        /* \"#utility.yul\":551:552   */\n      dup5\n        /* \"#utility.yul\":547:556   */\n      sgt\n        /* \"#utility.yul\":543:568   */\n      and\n        /* \"#utility.yul\":539:652   */\n      and\n        /* \"#utility.yul\":536:675   */\n      iszero\n      tag_27\n      jumpi\n        /* \"#utility.yul\":655:673   */\n      tag_28\n      tag_29\n      jump\t// in\n    tag_28:\n        /* \"#utility.yul\":536:675   */\n    tag_27:\n        /* \"#utility.yul\":859:860   */\n      dup2\n        /* \"#utility.yul\":791:857   */\n      0x8000000000000000000000000000000000000000000000000000000000000000\n        /* \"#utility.yul\":786:861   */\n      sdiv\n        /* \"#utility.yul\":783:784   */\n      dup4\n        /* \"#utility.yul\":779:862   */\n      slt\n        /* \"#utility.yul\":774:775   */\n      0x00\n        /* \"#utility.yul\":771:772   */\n      dup5\n        /* \"#utility.yul\":767:776   */\n      slt\n        /* \"#utility.yul\":763:764   */\n      0x00\n        /* \"#utility.yul\":760:761   */\n      dup5\n        /* \"#utility.yul\":756:765   */\n      sgt\n        /* \"#utility.yul\":752:777   */\n      and\n        /* \"#utility.yul\":748:863   */\n      and\n        /* \"#utility.yul\":745:886   */\n      iszero\n      tag_30\n      jumpi\n        /* \"#utility.yul\":866:884   */\n      tag_31\n      tag_29\n      jump\t// in\n    tag_31:\n        /* \"#utility.yul\":745:886   */\n    tag_30:\n        /* \"#utility.yul\":1070:1071   */\n      dup3\n        /* \"#utility.yul\":1002:1068   */\n      0x8000000000000000000000000000000000000000000000000000000000000000\n        /* \"#utility.yul\":997:1072   */\n      sdiv\n        /* \"#utility.yul\":994:995   */\n      dup3\n        /* \"#utility.yul\":990:1073   */\n      slt\n        /* \"#utility.yul\":985:986   */\n      0x00\n        /* \"#utility.yul\":982:983   */\n      dup5\n        /* \"#utility.yul\":978:987   */\n      sgt\n        /* \"#utility.yul\":974:975   */\n      0x00\n        /* \"#utility.yul\":971:972   */\n      dup5\n        /* \"#utility.yul\":967:976   */\n      slt\n        /* \"#utility.yul\":963:988   */\n      and\n        /* \"#utility.yul\":959:1074   */\n      and\n        /* \"#utility.yul\":956:1097   */\n      iszero\n      tag_32\n      jumpi\n        /* \"#utility.yul\":1077:1095   */\n      tag_33\n      tag_29\n      jump\t// in\n    tag_33:\n        /* \"#utility.yul\":956:1097   */\n    tag_32:\n        /* \"#utility.yul\":1280:1281   */\n      dup3\n        /* \"#utility.yul\":1212:1278   */\n      0x7fffffffffffffffffffffffffffffffffffffffffffffffffffffffffffffff\n        /* \"#utility.yul\":1207:1282   */\n      sdiv\n        /* \"#utility.yul\":1204:1205   */\n      dup3\n        /* \"#utility.yul\":1200:1283   */\n      slt\n        /* \"#utility.yul\":1195:1196   */\n      0x00\n        /* \"#utility.yul\":1192:1193   */\n      dup5\n        /* \"#utility.yul\":1188:1197   */\n      slt\n        /* \"#utility.yul\":1184:1185   */\n      0x00\n        /* \"#utility.yul\":1181:1182   */\n      dup5\n        /* \"#utility.yul\":1177:1186   */\n      slt\n        /* \"#utility.yul\":1173:1198   */\n      and\n        /* \"#utility.yul\":1169:1284   */\n      and\n        /* \"#utility.yul\":1166:1307   */\n      iszero\n      tag_34\n      jumpi\n        /* \"#utility.yul\":1287:1305   */\n      tag_35\n      tag_29\n      jump\t// in\n    tag_35:\n        /* \"#utility.yul\":1166:1307   */\n    tag_34:\n        /* \"#utility.yul\":1335:1336   */\n      dup3\n        /* \"#utility.yul\":1332:1333   */\n      dup3\n        /* \"#utility.yul\":1328:1337   */\n      mul\n        /* \"#utility.yul\":1317:1337   */\n      swap1\n      pop\n        /* \"#utility.yul\":352:1343   */\n      swap3\n      swap2\n      pop\n      pop\n      jump\t// out\n        /* \"#utility.yul\":1349:1425   */\n    tag_21:\n        /* \"#utility.yul\":1385:1392   */\n      0x00\n        /* \"#utility.yul\":1414:1419   */\n      dup2\n        /* \"#utility.yul\":1403:1419   */\n      swap1\n      pop\n        /* \"#utility.yul\":1349:1425   */\n      swap2\n      swap1\n      pop\n      jump\t// out\n        /* \"#utility.yul\":1431:1611   */\n    tag_29:\n        /* \"#utility.yul\":1479:1556   */\n      0x4e487b7100000000000000000000000000000000000000000000000000000000\n        /* \"#utility.yul\":1476:1477   */\n      0x00\n        /* \"#utility.yul\":1469:1557   */\n      mstore\n        /* \"#utility.yul\":1576:1580   */\n      0x11\n        /* \"#utility.yul\":1573:1574   */\n      0x04\n        /* \"#utility.yul\":1566:1581   */\n      mstore\n        /* \"#utility.yul\":1600:1604   */\n      0x24\n        /* \"#utility.yul\":1597:1598   */\n      0x00\n        /* \"#utility.yul\":1590:1605   */\n      revert\n\n    auxdata: 0xa264697066735822122040b2c00dcde7cc56ad8e4bc7ca73111c7c264239162009a05af7bca67ca883c564736f6c63430008070033\n}\n",
				"bytecode": {
					"linkReferences": {},
					"object": "608060405234801561001057600080fd5b5061026b806100206000396000f3fe608060405234801561001057600080fd5b50600436106100365760003560e01c8063c967aa5e1461003b578063f2c9ecd814610059575b600080fd5b610043610077565b60405161005091906100ca565b60405180910390f35b6100616100b1565b60405161006e91906100ca565b60405180910390f35b60007fffffffffffffffffffffffffffffffffffffffffffffffffffffffffffffffff6100a26100b1565b6100ac91906100e5565b905090565b6000610799905090565b6100c4816101fc565b82525050565b60006020820190506100df60008301846100bb565b92915050565b60006100f0826101fc565b91506100fb836101fc565b9250827f7fffffffffffffffffffffffffffffffffffffffffffffffffffffffffffffff048211600084136000841316161561013a57610139610206565b5b817f8000000000000000000000000000000000000000000000000000000000000000058312600084126000841316161561017757610176610206565b5b827f800000000000000000000000000000000000000000000000000000000000000005821260008413600084121616156101b4576101b3610206565b5b827f7fffffffffffffffffffffffffffffffffffffffffffffffffffffffffffffff05821260008412600084121616156101f1576101f0610206565b5b828202905092915050565b6000819050919050565b7f4e487b7100000000000000000000000000000000000000000000000000000000600052601160045260246000fdfea264697066735822122040b2c00dcde7cc56ad8e4bc7ca73111c7c264239162009a05af7bca67ca883c564736f6c63430008070033",
					"opcodes": "PUSH1 0x80 PUSH1 0x40 MSTORE CALLVALUE DUP1 ISZERO PUSH2 0x10 JUMPI PUSH1 0x0 DUP1 REVERT JUMPDEST POP PUSH2 0x26B DUP1 PUSH2 0x20 PUSH1 0x0 CODECOPY PUSH1 0x0 RETURN INVALID PUSH1 0x80 PUSH1 0x40 MSTORE CALLVALUE DUP1 ISZERO PUSH2 0x10 JUMPI PUSH1 0x0 DUP1 REVERT JUMPDEST POP PUSH1 0x4 CALLDATASIZE LT PUSH2 0x36 JUMPI PUSH1 0x0 CALLDATALOAD PUSH1 0xE0 SHR DUP1 PUSH4 0xC967AA5E EQ PUSH2 0x3B JUMPI DUP1 PUSH4 0xF2C9ECD8 EQ PUSH2 0x59 JUMPI JUMPDEST PUSH1 0x0 DUP1 REVERT JUMPDEST PUSH2 0x43 PUSH2 0x77 JUMP JUMPDEST PUSH1 0x40 MLOAD PUSH2 0x50 SWAP2 SWAP1 PUSH2 0xCA JUMP JUMPDEST PUSH1 0x40 MLOAD DUP1 SWAP2 SUB SWAP1 RETURN JUMPDEST PUSH2 0x61 PUSH2 0xB1 JUMP JUMPDEST PUSH1 0x40 MLOAD PUSH2 0x6E SWAP2 SWAP1 PUSH2 0xCA JUMP JUMPDEST PUSH1 0x40 MLOAD DUP1 SWAP2 SUB SWAP1 RETURN JUMPDEST PUSH1 0x0 PUSH32 0xFFFFFFFFFFFFFFFFFFFFFFFFFFFFFFFFFFFFFFFFFFFFFFFFFFFFFFFFFFFFFFFF PUSH2 0xA2 PUSH2 0xB1 JUMP JUMPDEST PUSH2 0xAC SWAP2 SWAP1 PUSH2 0xE5 JUMP JUMPDEST SWAP1 POP SWAP1 JUMP JUMPDEST PUSH1 0x0 PUSH2 0x799 SWAP1 POP SWAP1 JUMP JUMPDEST PUSH2 0xC4 DUP2 PUSH2 0x1FC JUMP JUMPDEST DUP3 MSTORE POP POP JUMP JUMPDEST PUSH1 0x0 PUSH1 0x20 DUP3 ADD SWAP1 POP PUSH2 0xDF PUSH1 0x0 DUP4 ADD DUP5 PUSH2 0xBB JUMP JUMPDEST SWAP3 SWAP2 POP POP JUMP JUMPDEST PUSH1 0x0 PUSH2 0xF0 DUP3 PUSH2 0x1FC JUMP JUMPDEST SWAP2 POP PUSH2 0xFB DUP4 PUSH2 0x1FC JUMP JUMPDEST SWAP3 POP DUP3 PUSH32 0x7FFFFFFFFFFFFFFFFFFFFFFFFFFFFFFFFFFFFFFFFFFFFFFFFFFFFFFFFFFFFFFF DIV DUP3 GT PUSH1 0x0 DUP5 SGT PUSH1 0x0 DUP5 SGT AND AND ISZERO PUSH2 0x13A JUMPI PUSH2 0x139 PUSH2 0x206 JUMP JUMPDEST JUMPDEST DUP2 PUSH32 0x8000000000000000000000000000000000000000000000000000000000000000 SDIV DUP4 SLT PUSH1 0x0 DUP5 SLT PUSH1 0x0 DUP5 SGT AND AND ISZERO PUSH2 0x177 JUMPI PUSH2 0x176 PUSH2 0x206 JUMP JUMPDEST JUMPDEST DUP3 PUSH32 0x8000000000000000000000000000000000000000000000000000000000000000 SDIV DUP3 SLT PUSH1 0x0 DUP5 SGT PUSH1 0x0 DUP5 SLT AND AND ISZERO PUSH2 0x1B4 JUMPI PUSH2 0x1B3 PUSH2 0x206 JUMP JUMPDEST JUMPDEST DUP3 PUSH32 0x7FFFFFFFFFFFFFFFFFFFFFFFFFFFFFFFFFFFFFFFFFFFFFFFFFFFFFFFFFFFFFFF SDIV DUP3 SLT PUSH1 0x0 DUP5 SLT PUSH1 0x0 DUP5 SLT AND AND ISZERO PUSH2 0x1F1 JUMPI PUSH2 0x1F0 PUSH2 0x206 JUMP JUMPDEST JUMPDEST DUP3 DUP3 MUL SWAP1 POP SWAP3 SWAP2 POP POP JUMP JUMPDEST PUSH1 0x0 DUP2 SWAP1 POP SWAP2 SWAP1 POP JUMP JUMPDEST PUSH32 0x4E487B7100000000000000000000000000000000000000000000000000000000 PUSH1 0x0 MSTORE PUSH1 0x11 PUSH1 0x4 MSTORE PUSH1 0x24 PUSH1 0x0 REVERT INVALID LOG2 PUSH5 0x6970667358 0x22 SLT KECCAK256 BLOCKHASH 0xB2 0xC0 0xD 0xCD 0xE7 0xCC JUMP 0xAD DUP15 0x4B 0xC7 0xCA PUSH20 0x111C7C264239162009A05AF7BCA67CA883C56473 PUSH16 0x6C634300080700330000000000000000 "
				},
				"gasEstimates": {
					"creation": {
						"codeDepositCost": "123800",
						"executionCost": "171",
						"totalCost": "123971"
					},
					"external": {
						"changeNumber()": "infinite",
						"getNumber()": "337"
					}
				},
				"methodIdentifiers": {
					"changeNumber()": "c967aa5e",
					"getNumber()": "f2c9ecd8"
				}
			},
			"storageLayout": {
				"storage": [],
				"types": null
			},
			"userdoc": {
				"kind": "user",
				"methods": {},
				"version": 1
			}
		}
	}
}